:1000000032C3000061C300005FC300005DC3000095
:100010005BC3000059C3000057C3000055C3000074
:1000200053C300000C94DB0D0C94DB0D0C94DB0D22
:100030004BC3000049C3000047C3000045C3000094
:1000400043C300000C94F30D3FC300003DC3000008
:100050003BC3000039C3000037C300000C94720892
:1000600033C3000066C600003BC600002DC300007D
:100070002BC3000029C3000027C3000025C30000D4
:1000800023C3000021C300001FC300001DC30000E4
:10009000FDC50000D2C5000017C3000015C3000055
:1000A00013C3000011C300000FC300000DC3000004
:1000B0000BC3000009C3000007C3000005C3000014
:1000C00003C3000001C30000FFC200008CC5000094
:1000D00061C50000F9C2000033C5000008C500007A
:1000E000F3C2000005273E273E2708270B270E27CF
:1000F0001A27CB2CCE2C1327012D012D212D212D9C
:10010000AF281A2D312D312D312D312D312D312D9D
:10011000312D312D012D212DCF28CF28872D872D51
:10012000B92DF72D052905290529052905290529B1
:1001300005290529062E542E99049C048B048F044E
:100140009504D304A004A404AA04AE04B204B80421
:10015000BC04C004D304C604CA04CE0400002100B9
:10016000240027002A002D00300033000101000088
:10017000040107010A010102102020080810204094
:10018000102040800201020108040201010204085B
:1001900010204080804020100804020180040201E9
:1001A0008040201008040201080402010102040832
:1001B000102040800102040810204080050505053C
:1001C000070508080808020202020A0A08080404CF
:1001D00004040101010101010101030303030303FD
:1001E0000303040707070C0C0C0C0C0C0C0C02028C
:1001F000020206060606060606060B0B0B0B0B0B89
:100200000B0B000005000A00100015001A0020006A
:1002100025002A00300035003A00400045004A0021
:10022000500055005A00600065006A0070007500BB
:100230007A00800085008A00900095009A00A00056
:10024000A500AA00B000B500BA00C000C500CA00F1
:10025000D000D500DA00E000E500EA00F000F5008B
:10026000FA00000105010A01100115011A0120011F
:1002700025012A01300135013A01400145014A01B9
:10028000500155015A01600165016A017001750153
:100290007A01800185018A01900195019A01A001EE
:1002A000A501AA01B001B501BA01C001C501CA0189
:1002B000D001D501DA01E001E501EA01F001F50123
:1002C000FA01000205020A02100215021A022002B7
:1002D00025022A02300235023A02400245024A0251
:1002E000500255025A02600265026A0270027502EB
:1002F0007A02800285028A02900295029A02A00286
:10030000A502AA02B002B502BA02C002C502CA0220
:10031000D002D502DA02E002E502EA02F002F502BA
:10032000FA02000305030A03100315031A0320034E
:100330001D031B03190316031403120310030D03FB
:100340000B0309030603040302030003FD02FB027F
:10035000F902F602F402F202F002ED02EB02E90207
:10036000E602E402E202E002DD02DB02D902D6028A
:10037000D402D202D002CD02CB02C902C602C4020C
:10038000C202C002BD02BB02B902B602B402B2028E
:10039000B002AD02AB02A902A602A402A202A00210
:1003A0009D029B02990296029402920290028D0293
:1003B0008B02890286028402820280027D027B0215
:1003C000790276027402720270026D026B02690297
:1003D00066026402620260025D025B02590256021A
:1003E0005402520250024D024B024902460244029C
:1003F000420240023D023B0239023602340232021E
:1004000030022D022B02290226022402220220029F
:100410001D021B02190216021402120210020D0222
:100420000B0209020602040202020002FD01FB01A6
:10043000F901F601F401F201F001ED01EB01E9012E
:10044000E601E401E201E001DD01DB01D901D601B1
:10045000D401D201D001CD01CB01C901C601C40133
:10046000C201C001BD01BB01B901B601B401B201B5
:10047000B001AD01AB01A901A601A401A201A00137
:100480009D019B01990196019401920190018D01BA
:100490008B01890186018401820180017D017B013C
:1004A000790176017401720170016D016B016901BE
:1004B00066016401620160015D015B015901560141
:1004C0005401520150014D014B01490146014401C3
:1004D000420140013D013B01390136013401320145
:1004E00030012D012B0129012601240122012001C7
:1004F0001D011B01190116011401120110010D014A
:100500000B0109010601040102010001FD00FB00CD
:10051000F900F600F400F200F000ED00EB00E90055
:10052000E600E400E200E000DD00DB00D900D600D8
:10053000D400D200D000CD00CB00C900C600C4005A
:10054000C200C000BD00BB00B900B600B400B200DC
:10055000B000AD00AB00A900A600A400A200A0005E
:100560009D009B00990096009400920090008D00E1
:100570008B00890086008400820080007D007B0063
:10058000790076007400720070006D006B006900E5
:1005900066006400620060005D005B005900560068
:1005A0005400520050004D004B00490046004400EA
:1005B000420040003D003B0039003600340032006C
:1005C00030002D002B0029002600240022002000EE
:1005D0001D001B00190016001400120010000D0071
:1005E0000B000900060004000200000022002500A4
:1005F00028002B002E00310034000201000005010C
:1006000008010B01000020002300260029002C0017
:100610002F00320000010000030106010901000063
:100620000A0B02090C0D0E0807030401000000006C
:1006300000000000000000000000000000000000BA
:100640000000000000000000000012111000000077
:10065000000000000000000000000000000000009A
:10066000000000002F1611241FBECFEFD1E2DEBF25
:10067000CDBF00E00CBF19E0A0E0B2E0E4E6F2E696
:1006800000E00BBF02C007900D92AA30B107D9F766
:1006900022E1AAE0B9E001C01D92AE3AB207E1F74B
:1006A00013E0C3E3D3E000E006C021970109802FE7
:1006B000FE010E940930C233D10780E00807A9F784
:1006C0000E948C210C9430319BCCFC01538D448DC5
:1006D000252F30E0842F90E0821B930B541710F0ED
:1006E000CF96089501970895FC01918D828D9817FA
:1006F00061F0828DDF01A80FB11D5D968C91928D06
:100700009F5F9F73928F90E008958FEF9FEF089502
:10071000FC01918D828D981731F0828DE80FF11DCB
:10072000858D90E008958FEF9FEF0895FC01918DE6
:10073000228D892F90E0805C9F4F821B91098F73DF
:10074000992708958AE099E0F1DF21E0892B09F4E7
:1007500020E0822F089587EA99E0E8DF21E0892BE5
:1007600009F420E0822F089584E49AE0DFDF21E09D
:10077000892B09F420E0822F089581EE9AE0D6DFDC
:1007800021E0892B09F420E0822F0895FC01848D5B
:10079000DF01A80FB11DA35ABF4F2C91848D90E0AB
:1007A00001968F739927848FA689B7892C93A08986
:1007B000B1898C91837080648C93938D848D981310
:1007C00006C00288F389E02D80818F7D80830895A3
:1007D000EF92FF920F931F93CF93DF93EC0181E091
:1007E000888F9B8D8C8D981305C0E889F98980814D
:1007F00085FD25C0F62E0B8D10E00F5F1F4F0F7388
:100800001127E02E8C8DE8120BC00FB607FCFACF33
:10081000E889F989808185FFF5CFCE01B7DFF2CF76
:100820008B8DFE01E80FF11DE35AFF4FF0829FB759
:10083000F8940B8FEA89FB89808180620AC09FB798
:10084000F894EE89FF896083E889F9898081837053
:10085000806480839FBF81E090E0DF91CF911F9102
:100860000F91FF90EF900895CF93DF93EC01888D67
:100870008823C1F0EA89FB89808185FD05C0A889AC
:10088000B9898C9186FD0EC00FB607FCF5CF80812B
:1008900085FFF2CFA889B9898C9185FFEDCFCE0174
:1008A00075DFE8CFDF91CF91089580E090E0892B4C
:1008B00019F063DF811116C080E090E0892B19F0F8
:1008C00053DF811112C080E090E0892B19F043DFE3
:1008D00081110EC080E090E0892B79F033DF811127
:1008E0000AC008950E940000E7CF0E940000EBCFED
:1008F0000E940000EFCF0C940000089590E0FC01EE
:100900003197E231F10508F04EC08827E456FF4FD9
:100910008F4F0C940930809180008F7703C08091B5
:1009200080008F7D80938000089580918000877F74
:10093000F9CF84B58F7702C084B58F7D84BD0895CB
:100940008091B0008F7703C08091B0008F7D80933D
:10095000B0000895809190008F7707C0809190003B
:100960008F7D03C080919000877F809390000895D1
:100970008091A0008F7707C08091A0008F7D03C079
:100980008091A000877F8093A0000895809120012E
:100990008F7707C0809120018F7D03C08091200157
:1009A000877F8093200108950E940531EF92FF9286
:1009B0000F931F93CF93DF93EC01790141155105FC
:1009C0006105710511F482E13CC08B85833039F0FB
:1009D00089E0440F551F661F771F8A95D1F79A014A
:1009E000AB0168E1CE010E948511882311F084E0FB
:1009F00028C08EEF0E944A1187018EEFF81AF80185
:100A000081918F010E944A11E016F106C1F78FEF24
:100A10000E944A118FEF0E944A110E9451118A8749
:100A20008F71853031F081E18D83CE010E94D10D2F
:100A300009C068E572E0CE010E945311811107C020
:100A400085E18D83CE010E94D10D80E014C020E0AD
:100A500030E0A9016DE0CE010E948511811109C02D
:100A60000E945111811105C0CE010E94D10D81E07B
:100A700002C084E1E6CFDF91CF911F910F91FF90EB
:100A8000EF90089580919710882379F14091380272
:100A90005091390260913A0270913B022CE930E1A9
:100AA00080E090E083DF811102C080E008954091F2
:100AB00098105091991060919A1070919B10411567
:100AC00051056105710579F02CE930E180E090E095
:100AD0006DDF882351F310929810109299101092A4
:100AE0009A1010929B101092971081E008951F9217
:100AF0000F920FB60F9211240BB60F922F933F93C4
:100B00004F935F936F937F938F939F93AF93BF9315
:100B1000EF93FF938AE099E039DEFF91EF91BF9167
:100B2000AF919F918F917F916F915F914F913F9185
:100B30002F910F900BBE0F900FBE0F901F90189526
:100B40001F920F920FB60F9211240BB60F922F9394
:100B50003F934F935F936F937F938F939F93AF9345
:100B6000BF93EF93FF938AE099E00E94A715FF914E
:100B7000EF91BF91AF919F918F917F916F915F9115
:100B80004F913F912F910F900BBE0F900FBE0F9082
:100B90001F9018951F920F920FB60F9211240BB64B
:100BA0000F922F933F934F935F936F937F938F9306
:100BB0009F93AF93BF93EF93FF9387EA99E0E6DDAE
:100BC000FF91EF91BF91AF919F918F917F916F9125
:100BD0005F914F913F912F910F900BBE0F900FBEE1
:100BE0000F901F9018951F920F920FB60F9211241D
:100BF0000BB60F922F933F934F935F936F937F9317
:100C00008F939F93AF93BF93EF93FF9387EA99E0FE
:100C10000E94A715FF91EF91BF91AF919F918F9186
:100C20007F916F915F914F913F912F910F900BBEEC
:100C30000F900FBE0F901F9018951F920F920FB636
:100C40000F9211240BB60F922F933F934F935F9304
:100C50006F937F938F939F93AF93BF93EF93FF9384
:100C600084E49AE093DDFF91EF91BF91AF919F9162
:100C70008F917F916F915F914F913F912F910F9045
:100C80000BBE0F900FBE0F901F9018951F920F92E2
:100C90000FB60F9211240BB60F922F933F934F93E1
:100CA0005F936F937F938F939F93AF93BF93EF93D4
:100CB000FF9384E49AE00E94A715FF91EF91BF9102
:100CC000AF919F918F917F916F915F914F913F91E4
:100CD0002F910F900BBE0F900FBE0F901F90189585
:100CE0001F920F920FB60F9211240BB60F922F93F3
:100CF0003F934F935F936F937F938F939F93AF93A4
:100D0000BF93EF93FF9381EE9AE040DDFF91EF9167
:100D1000BF91AF919F918F917F916F915F914F9113
:100D20003F912F910F900BBE0F900FBE0F901F9011
:100D300018951F920F920FB60F9211240BB60F92B7
:100D40002F933F934F935F936F937F938F939F93D3
:100D5000AF93BF93EF93FF9381EE9AE00E94A715A4
:100D6000FF91EF91BF91AF919F918F917F916F9183
:100D70005F914F913F912F910F900BBE0F900FBE3F
:100D80000F901F901895CF93DF93282F30E0F90133
:100D9000E25EF94F8491F901EA58FE4FD491F901CE
:100DA000E454FE4FC491CC2389F08111A7DDEC2FD0
:100DB000F0E0EE0FFF1FEC5FF94FA591B491EC91BD
:100DC000ED2381E090E021F480E002C080E090E03B
:100DD000DF91CF9108951F93CF93DF93282F30E0B9
:100DE000F901E25EF94F8491F901EA58FE4FD4917E
:100DF000F901E454FE4FC491CC23B9F0162F8111B0
:100E00007DDDEC2FF0E0EE0FFF1FE651FA4FA591CC
:100E1000B4919FB7F894111104C08C91D095D82348
:100E200002C0EC91DE2BDC939FBFDF91CF911F912D
:100E30000895CF93DF9390E0FC01EA58FE4F249190
:100E4000FC01E454FE4F8491882361F190E0880F07
:100E5000991FFC01E45AFE4FC591D491FC01E65163
:100E6000FA4FA591B491611109C09FB7F894888198
:100E7000209582238883EC912E230BC0623061F48D
:100E80009FB7F8948881322F309583238883EC9123
:100E90002E2B2C939FBF06C08FB7F894E8812E2B82
:100EA00028838FBFDF91CF9108953FB7F894809149
:100EB000A1129091A212A091A312B091A41226B5F2
:100EC000A89B05C02F3F19F00196A11DB11D3FBF82
:100ED000BA2FA92F982F8827820F911DA11DB11D10
:100EE000BC01CD0142E0660F771F881F991F4A950C
:100EF000D1F708958F929F92AF92BF92CF92DF92D7
:100F0000EF92FF926B017C01D0DF4B015C01C114B9
:100F1000D104E104F104E9F0C8DFDC01CB01881958
:100F20009909AA09BB09883E9340A105B10578F348
:100F300021E0C21AD108E108F10888EE880E83E0AA
:100F4000981EA11CB11CC114D104E104F10421F7C5
:100F5000DECFFF90EF90DF90CF90BF90AF909F904B
:100F60008F9008952FB7F89460919D1270919E1202
:100F700080919F129091A0122FBF0895AF92BF92BF
:100F8000CF92DF92EF92FF921F93CF93DF936B018B
:100F90007C01142F8091380290913902A0913A027D
:100FA000B0913B028C159D05AE05BF0509F48AC0C2
:100FB00069DD882309F48CC0809106008823A1F0A4
:100FC0008091000090910100A0910200B091030077
:100FD000C816D906EA06FB0639F4809107009091FD
:100FE0000800892B09F440C0C0920000D092010093
:100FF000E0920200F092030080910B00A70196019D
:10100000833039F099E0220F331F441F551F9A9502
:10101000D1F761E180E090E00E948511882321F002
:1010200083E08093050041C09DDFEB010E945111D8
:1010300080930A008F3F41F495DF6C1B7D0B6D326E
:101040007140A0F38FE003C08E3F39F08DE08093B4
:10105000050080E090E0A5D528C01092080010920D
:10106000070081E080930600CCE9D0E18CE9A82E4E
:1010700082E1B82E0E9451118993AC16BD06D1F7BA
:1010800080910700909108009E5F909308008093E4
:10109000070020910900222319F08115924050F099
:1010A00080E090E00E946D1105C080E090E079D56D
:1010B00080E00EC0C0923802D0923902E0923A022B
:1010C000F0923B0240919710412B4093971081E0A2
:1010D000DF91CF911F91FF90EF90DF90CF90BF9065
:1010E000AF9008951F920F920FB60F9211242F9375
:1010F0003F938F939F93AF93BF9380919D12909155
:101100009E12A0919F12B091A01230919C1223E0E8
:10111000230F2D3720F40196A11DB11D05C026E82F
:10112000230F0296A11DB11D20939C1280939D1246
:1011300090939E12A0939F12B093A0128091A1123F
:101140009091A212A091A312B091A4120196A11D98
:10115000B11D8093A1129093A212A093A312B093F9
:10116000A412BF91AF919F918F913F912F910F90BA
:101170000FBE0F901F9018954F925F926F927F92C3
:101180008F929F92AF92BF92CF92DF92EF92FF9297
:101190000F931F93CF93DF93EC014230510561050C
:1011A000710510F480E077C089859A85AB85BC8590
:1011B0000196A11DB11D84179507A607B70790F3E7
:1011C000CB88DC88ED88FE888F89803129F4BB27A5
:1011D000A72F962F852F09C0DB01CA01E7E0B6953E
:1011E000A79597958795EA95D1F7480159012A0166
:1011F0003B01C80ED91EEA1EFB1E80913802909159
:101200003902A0913A02B0913B02C816D906EA060B
:10121000FB0681F48F898031A1F4B301A201552727
:1012200066277727440F551FFA01E456FF4E918237
:10123000808218C040E0C701B601A0DE8111EACF6C
:10124000B1CFB301A2014F77552766277727440F07
:10125000551F440F551FFA01E456FF4E80829182BC
:10126000A282B382809197108160809397108A89BF
:10127000823080F08D819E81AF81B885C80ED91EE5
:10128000EA1EFB1EC0929810D0929910E0929A101C
:10129000F0929B1081E0DF91CF911F910F91FF9011
:1012A000EF90DF90CF90BF90AF909F908F907F9006
:1012B0006F905F904F9008958F929F92AF92BF92E0
:1012C000CF92DF92EF92FF920F931F93CF93DF9312
:1012D000FC0181859285A385B4850196A11DB11D70
:1012E00084179507A607B70710F480E05AC08388D3
:1012F0009488A588B6888789803129F4BB27A72FD1
:10130000962F852F09C0DB01CA01C7E0B695A795C6
:1013100097958795CA95D1F7E9016A017B018F01FD
:10132000BC01CD01680D791D8A1D9B1D809038027E
:1013300090903902A0903A02B0903B02681579056E
:101340008A059B0591F4F8018789803199F4DD24A1
:10135000EE24FF24C601880F991FFC01E456FF4EBE
:1013600080819181A0E0B0E017C040E007DE8111EC
:10137000EACFBBCFE894C7F8DD24EE24FF24C601F2
:10138000880F991F880F991FFC01E456FF4E80813A
:101390009181A281B381BF7088839983AA83BB8323
:1013A00081E0DF91CF911F910F91FF90EF90DF903F
:1013B000CF90BF90AF909F908F9008954F925F9283
:1013C0006F927F92AF92BF92CF92DF92EF92FF9295
:1013D0000F931F93CF93DF9300D01F921F92CDB72F
:1013E000DEB78C016D83DC0115968C9115978130E9
:1013F00009F053C014968C9181FF4FC056C02585CB
:1014000030E0275F3F4F2A013B01B1E04B1A510802
:1014100061087108022E04C076946794579447942B
:101420000A94D2F7D701C6010197A109B10904C0F6
:10143000B695A795979587952A95D2F78415950522
:10144000A605B70508F075C0F8014789508D618D74
:10145000728D46835783608771872C013D01580147
:10146000F6E0AF0EB11C411451046104710409F49B
:101470006AC0D80116964D915D916D917C91199736
:1014800095015B968D919C915C9716DFB1E04B1AAC
:101490005108610871088111E6CF81E090E0F80100
:1014A0009383828380E090E056C182FF0EC0F801F2
:1014B0004285538564857585C388D488E588F68818
:1014C0004C155D056E057F05E9F4D8011A964D911E
:1014D0005D916D917C911D975B96ED91FC915C9770
:1014E000948191506A017B0189E0F694E794D79446
:1014F000C7948A95D1F79C217A01B1E0FB22911122
:1015000072C027C0D801038CF48DE02DC114D10422
:10151000E104F10409F073CF16961D921D921D92FD
:101520001C9219971A961D921D921D921C921D973E
:1015300014C0452B462B472B09F486CF84199509F7
:10154000A609B7098ACFF801C286D386E486F58654
:10155000BCCFE114F10409F046C0D80116964D91B4
:101560005D916D917C91199741155105610571054A
:1015700059F457968D919D910D90BC91A02D009797
:10158000A105B10541F521C09E012F5F3F4FCF015D
:1015900093DE882309F486CF89819A81AB81BC814F
:1015A000F801238D348DF9012789203129F448EF82
:1015B0005FEF60E070E004C048EF5FEF6FEF7FE047
:1015C00084179507A607B70730F0C8010E94A41436
:1015D000811106C062CFF80186839783A087B18707
:1015E000E12CF12C90E0D8015B96ED91FC915C9799
:1015F00016964D905D906D907C901997B2E04B1AC5
:10160000510861087108058404C0440C551C661C0F
:10161000771C0A94D2F74685578560897189440EF4
:10162000551E661E771E490E511C611C711CE1146B
:10163000F10401F5F8014285538564857585838938
:101640009489A589B689481759076A077B0790F0DE
:1016500019DA882309F421CF4092380250923902D6
:1016600060923A0270923B02809197108160809361
:10167000971007C041E0C301B20180DC882309F460
:101680000CCFF701E456FF4E8D818083F8018285EF
:101690009385A485B5850196A11DB11D8287938789
:1016A000A487B5874389548965897689481759077E
:1016B0006A077B0738F4838B948BA58BB68B848168
:1016C00080688483D80114968C9183FD03C081E0E7
:1016D00090E041C0F8019581992309F4DECE87FF9F
:1016E00036C0668577858089918941E047DC88230B
:1016F00009F4D3CED8015296EC91B0E2EB9FF00101
:101700001124E456FF4E309709F4C7CED801159640
:101710008C911597823050F453964D915D916D9157
:101720007C915697448F558F668F778FD801579647
:101730004D915D916D917C915A97538F428F758B2E
:10174000648B14968C9114978F7714968C939AD9F6
:101750008111BDCFA2CE0F900F900F900F900F90E0
:10176000DF91CF911F910F91FF90EF90DF90CF907D
:10177000BF90AF907F906F905F904F9008950895C5
:1017800080E090E00895DC011C96ED91FC911D979E
:10179000A081B181158214821D921C920895DC01F2
:1017A0001C96ED91FC911D97A081B18181E090E0A4
:1017B000958384838D939C930895DC011C96ED9111
:1017C000FC911D970190F081E02D11821082089507
:1017D000DC011C96ED91FC911D9781E090E0268143
:1017E0003781232B11F080E090E095838483019072
:1017F000F081E02D81E090E0918380830895209135
:101800009E0B222311F12EE08E3A920759F0AEE0A2
:10181000803A9A0751F0BEE082399B0749F423E0F1
:1018200030E008C021E030E005C022E030E002C036
:1018300020E030E0DC011C96ED91FC911D97A08129
:10184000B1812D933C93358324830895DC011C964C
:10185000ED91FC911D9781E090E026813781232B4B
:1018600011F080E090E0A081B1818D939C939583ED
:1018700084830895CF93DF93EC01E8DF8091410CDE
:101880008823D1F0E091440CF091450CCE17DF078E
:1018900021F4E091460CF091470C0484F585E02D8D
:1018A000AC85BD8514968D919C911597A081B181D1
:1018B0008D939C9395838483DF91CF910895CF93EB
:1018C000DF9340913F0C5091400C9A012F5F3F4FA6
:1018D000465F5F4FE6E0B9012A30310514F06A50E7
:1018E0007109E69FE001E79FD00D1124CF5FD34F30
:1018F000DE0112966A817B81672B41F48D939C9364
:1019000031DB6C837D838E839F8305C02F5F3F4FC8
:101910002417350701F7DF91CF910895CF93DF9317
:10192000EC0194DFEC85FD8561E084819581019770
:1019300009F060E060939E0B8EE2DF91CF914BCA7D
:10194000CF93DF93EB01DC011C96ED91FC911D9789
:10195000A081B181758364836D937C9361E020974E
:1019600009F060E087E137DA61E0C130D10509F0C4
:1019700060E089E130DA61E0229709F060E08BE114
:10198000DF91CF9128CAAFE9B2E0ED91FD91309798
:1019900031F00484F585E02D17821682F6CFADE88C
:1019A000B2E0ED91FD91309731F00484F585E02DA2
:1019B00017821682F6CFE091620FF091630F82E0FA
:1019C00090E09783868360E070E086E59FE0B8CF83
:1019D00062E070E0B5CF61E070E0B2CF60E070E04F
:1019E000AFCF0F931F93CF93DF93CDB7DEB76A9737
:1019F0000FB6F894DEBF0FBECDBF28E0E9ECF2E0F1
:101A0000DE01539601900D922A95E1F7FE0173963F
:101A100000E010E0219131912817390739F00F5F6C
:101A20001F4F04301105B1F700E010E0DC011C96F7
:101A3000ED91FC911D97A081B1810D931C931583AD
:101A40000483CE010A9608D61B870A8789E0FE0127
:101A50003A96DE01119601900D928A95E1F7CE013A
:101A6000019616D66A960FB6F894DEBF0FBECDBFAC
:101A7000DF91CF911F910F9108950F931F93CF93F3
:101A8000DF93CDB7DEB762970FB6F894DEBF0FBE17
:101A9000CDBFDC011C96ED91FC911D97868197814D
:101AA000611103C006EF1FEF02C00AE010E0080F4B
:101AB000191F0536110514F004E610E017FF02C0E7
:101AC00000E010E0A081B1810D931C931583048385
:101AD000CE010A96C1D51F870E8789E0FE013A968E
:101AE000DE01119601900D928A95E1F7CE010196E3
:101AF000CFD562960FB6F894DEBF0FBECDBFDF9193
:101B0000CF911F910F91089560E0B7CF61E0B5CFFD
:101B10000F931F93CF93DF93CDB7DEB762970FB6C6
:101B2000F894DEBF0FBECDBFDC011C96ED91FC9199
:101B30001D9786819781611103C00FEF1FEF02C0CF
:101B400001E010E0080F191F17FF02C000E010E0CD
:101B50000A30110514F009E010E015830483CE016A
:101B60000A967AD5198B088B89E0FE013A96DE0138
:101B7000119601900D928A95E1F7CE01019688D5D4
:101B8000C801E2D562960FB6F894DEBF0FBECDBF96
:101B9000DF91CF911F910F91089560E0B9CF61E07F
:101BA000B7CF61E0FC01848116D98091A91281111F
:101BB0001092A91208951F920F920FB60F9211243E
:101BC0000F900FBE0F901F901895EFE6F0E0808108
:101BD0008D7F808382E08093810081E0809380000C
:101BE0002D982E9808951F920F920FB60F921124E0
:101BF0000BB60F920F931F932F933F934F935F93C7
:101C00006F937F938F939F93AF93BF93EF93FF93C4
:101C1000A9D90091791010917A1020917B10309100
:101C20007C10601771078207930708F0CEDFFF91E1
:101C3000EF91BF91AF919F918F917F916F915F9144
:101C40004F913F912F911F910F910F900BBE0F90CD
:101C50000FBE0F901F901895CF93DF93EC018AE091
:101C600099E00E949603892B29F08AE099E00E946E
:101C70007403F5CFBE018AE099E094D46FEF8AE057
:101C800099E00E94E8036FEF8AE099E00E94E80380
:101C90006FEF8AE099E0DF91CF910C94E8038F9287
:101CA0009F92AF92BF92EF92FF920F931F93CF93A9
:101CB000DF93CDB7DEB760970FB6F894DEBF0FBEE7
:101CC000CDBF7C014A015B018E010F5F1F4F8AE08F
:101CD000F80111928A95E9F769E079E0CE010B9657
:101CE0007FD74AE0B801C4010E94952FF7016281B5
:101CF0007381CE010B9644D76DE978E0CE010B9647
:101D00003FD7B801CE010B963BD78B859C85A4DFCE
:101D10008B859C850E940C2F81E060960FB6F8940D
:101D2000DEBF0FBECDBFDF91CF911F910F91FF900E
:101D3000EF90BF90AF909F908F9008950F931F9357
:101D4000CF93DF9300D000D0CDB7DEB7FC01028186
:101D500013810115110591F063EA78E0CE01019637
:101D60003FD7B801CE0101960BD789819A8174DFE4
:101D700089819A810E940C2F81E001C080E0269623
:101D80000FB6F894DEBF0FBECDBFDF91CF911F918C
:101D90000F9108958F929F92AF92BF92CF92DF9250
:101DA000EF92FF920F931F93CF93DF93CDB7DEB7E0
:101DB00060970FB6F894DEBF0FBECDBF7C016B01FC
:101DC00049015A018E010F5F1F4F8AE0F8011192FD
:101DD0008A95E9F769E079E0CE010B9601D74AE0F0
:101DE000B801C4010E94952FB601CE010B96C8D64A
:101DF00069EA78E0CE010B96C3D6F7016281738160
:101E0000CE010B96BDD66DE978E0CE010B96B8D623
:101E1000B801CE010B96B4D68B859C851DDF8B85D2
:101E20009C850E940C2F81E060960FB6F894DEBF6F
:101E30000FBECDBFDF91CF911F910F91FF90EF901B
:101E4000DF90CF90BF90AF909F908F9008950F93A9
:101E50001F93CF93DF93CDB7DEB72A970FB6F894D1
:101E6000DEBF0FBECDBFDB011C96ED91FC911D972F
:101E7000248135818681978128173907E1F08B010C
:101E800088E0E1EDF2E0DE01119601900D928A9575
:101E9000E1F71A86198640E050E0BE016F5F7F4F80
:101EA000C80178DFD8011C96ED91FC911D978481C3
:101EB0009581978386832A960FB6F894DEBF0FBE6E
:101EC000CDBFDF91CF911F910F9108950F931F9375
:101ED000CF93DF93CDB7DEB72A970FB6F894DEBF66
:101EE0000FBECDBFDB011C96ED91FC911D97828149
:101EF0009381DC014D915C91268137814217530714
:101F000009F18B0128E0E1EDF2E0DE01119601908C
:101F10000D922A95E1F71A861986FC0120813181FC
:101F200040E050E0BE016F5F7F4FC80133DFD80152
:101F30001C96ED91FC911D97A281B3818D919C918E
:101F4000978386832A960FB6F894DEBF0FBECDBF67
:101F5000DF91CF911F910F910895EF92FF920F9310
:101F60001F93CF93DF93CDB7DEB72A970FB6F894C0
:101F7000DEBF0FBECDBFDC011C96ED91FC911D971D
:101F8000A281B3814D915C9126813781421753071D
:101F900009F464C07B018C016BEA78E081EE9AE081
:101FA00001D3D8011C96ED91FC911D970280F3811D
:101FB000E02D808191813ED3F6D267EC78E081EE0E
:101FC0009AE0F0D2D8011C96ED91FC911D97868184
:101FD000978130D3E8D2D8011C96ED91FC911D97E2
:101FE00082819381DC012D913C913783268328E007
:101FF000E1EDF2E0DE01119601900D922A95E1F7F4
:102000001A861986FC012081318140E050E0BE0132
:102010006F5F7F4FC701BEDED8011C96ED91FC912A
:102020001D9786819781892B39F41092A612109200
:10203000A51284E59CE011C08091A5129091A61292
:10204000892B61F481E090E09093A6128093A51211
:102050008CED98E0F4D288E49CE070DE2A960FB60E
:10206000F894DEBF0FBECDBFDF91CF911F910F91CE
:10207000FF90EF900895CF93DF93CDB7DEB72A9707
:102080000FB6F894DEBF0FBECDBFDC011C96ED91FC
:10209000FC911D9724813581868197812817390706
:1020A000A1F0CB013783268348E0E1EDF2E0DE01C9
:1020B000119601900D924A95E1F71A86198640E033
:1020C00050E0BE016F5F7F4F65DE2A960FB6F89431
:1020D000DEBF0FBECDBFDF91CF9108950F931F9349
:1020E000CF93DF93CDB7DEB762970FB6F894DEBF1C
:1020F0000FBECDBFDC011C96ED91FC911D97448174
:1021000055812681378142175307F9F08C01B3DFDF
:10211000D8011C96ED91FC911D9711E08481958169
:10212000019709F010E01093410CCE010A9694D269
:102130001A8B89E0FE013A96DE01119601900D920C
:102140008A95E1F7CE010196A3D262960FB6F89474
:10215000DEBF0FBECDBFDF91CF911F910F910895CC
:10216000CF93DF93DC011C96ED91FC911D97448188
:102170005581268137814217530779F0EC017BDFC7
:10218000EC85FD8561E084819581892B09F460E00F
:102190008AE2DF91CF910C94EB06DF91CF91089505
:1021A000CF93DF93DC011C96ED91FC911D97448148
:1021B0005581268137814217530779F0EC015BDFA7
:1021C000EC85FD8561E084819581892B09F460E0CF
:1021D00088E2DF91CF910C94EB06DF91CF910895C7
:1021E000CF93DF93EC0147DFEC85FD85C681D78176
:1021F00061E0C130D10509F460E08FE10E94EB0697
:1022000061E0C230D10509F460E081E20E94EB0692
:1022100061E0239709F460E083E2DF91CF910C94B1
:10222000EB06CF93DF93CDB7DEB72A970FB6F894BE
:10223000DEBF0FBECDBFDC011C96ED91FC911D975A
:1022400022813381D9014D915C9186819781481714
:102250005907B9F0CB015783468348E0E1EDF2E03E
:10226000DE01119601900D924A95E1F71A861986C2
:10227000F9012081318140E050E0BE016F5F7F4F66
:1022800089DD2A960FB6F894DEBF0FBECDBFDF9171
:10229000CF9108958EBD00000DB407FEFDCF8EB521
:1022A00008958FEFF7CF0F931F93CF93DF93EB0139
:1022B0000E94B2078B01F5DF8F3F49F00E94B20701
:1022C000601B710B6C177D07B0F380E001C081E0EB
:1022D000DF91CF911F910F910895CF93DF93EC0180
:1022E0008E81882379F08F8198859C012F5F3F4FE5
:1022F00038872F838230924010F4D3DFF4CFCE01A1
:1023000050DC1E82DF91CF9108958F929F92AF9201
:10231000BF92FF920F931F93CF93DF93EC01F62EA2
:1023200049015A01DADF8091A912811109C081E0C7
:102330008093A91290917E0B80917F0B9CBD8DBDE7
:1023400060E08C810E94EB066CE271E0CE01ABDFB5
:102350008F2D80649FDF08E110E0D501C401002EBD
:1023600004C0B695A795979587950A94D2F792DF02
:1023700008501109083F8FEF180779F7FF2029F05F
:1023800088E0F81204C087E803C085E901C08FEF38
:1023900081DF10E086DF8A8787FF04C01F3F11F0CE
:1023A0001F5FF8CFDF91CF911F910F91FF90BF90EA
:1023B000AF909F908F900895CF93DF93CDB7DEB706
:1023C00029970FB6F894DEBF0FBECDBF89E0EBEDC5
:1023D000F2E0DE01119601900D928A95E1F7CE01AF
:1023E000019656D18DEE98E02AD129960FB6F89431
:1023F000DEBF0FBECDBFDF91CF910895DC011896EF
:10240000ED91FC911997309749F01C966D917C9154
:102410001D971A968D919C911B9719940895CF92B0
:10242000DF92EF92FF920F931F93CF93DF936C0194
:102430007A018B01C0E0D0E0CE15DF0581F0D80134
:102440006D918D01D601ED91FC910190F081E02D0F
:10245000C6011995892B11F02196EECF7E01C70197
:10246000DF91CF911F910F91FF90EF90DF90CF9070
:1024700008950F931F93CF93DF93EC018881998187
:10248000009729F02A813B812617370788F48B01B2
:102490006F5F7F4F0E942530009761F0998388839A
:1024A0001B830A832C813D81232B11F4FC011082B4
:1024B00081E001C080E0DF91CF911F910F910895DD
:1024C000CF92DF92EF92FF92CF93DF93EC016A01FC
:1024D0007B01E889F98982E080834115514E6105CD
:1024E0007105B1F060E079E08DE390E0A70196011D
:1024F0000E94D42FDA01C9010197A109B109B6954B
:10250000A795979587959C01211580E13807A8F03C
:10251000E889F989108260E874E88EE190E0A7010B
:1025200096010E94D42FDA01C9010197A109B109CE
:10253000B695A795979587959C01EC85FD85308389
:10254000EE85FF852083188EEC89FD8986E08083E7
:10255000EA89FB89808180618083EA89FB898081A7
:1025600088608083EA89FB89808180688083EA892A
:10257000FB8980818F7D8083DF91CF91FF90EF90E9
:10258000DF90CF9008956115710549F0FB0101902E
:102590000020E9F73197AF01461B570B40CF80E091
:1025A00090E00895F0CF67E079E081EE9AE0EBCF1C
:1025B0008F929F92AF92BF920F931F93CF93DF930F
:1025C000CDB7DEB7A1970FB6F894DEBF0FBECDBF73
:1025D00019A2423008F44AE08E010F5D1F4F842E8D
:1025E000912CA12CB12CA50194010E94D42FE62F8F
:1025F000B901CA0101501109EA3014F4E05D01C0CB
:10260000E95CD801EC93232B242B252B61F7B8012F
:1026100081EE9AE0B8DFA1960FB6F894DEBF0FBE48
:10262000CDBFDF91CF911F910F91BF90AF909F9041
:102630008F900895BC0180E090E04AE0B9CFCF933D
:10264000DF93BC0181EE9AE09EDFEC01ACDF8C0FE2
:102650009D1FDF91CF910895EF92FF920F931F93EB
:10266000CF93DF937C018C01C0E0D0E0CE010E94CB
:10267000BE2FF80181938F012196C930D105B1F7A2
:10268000C701DF91CF911F910F91FF90EF900895B7
:10269000DF92EF92FF920F931F93CF93DF937C0112
:1026A0008C01C0E0D0E0F801D1908F01CE010E94F2
:1026B000BE2FD81621F06D2DCE010E94C62F219677
:1026C000C930D10581F7C701DF91CF911F910F91DB
:1026D000FF90EF90DF900895CF92DF92EF92FF92FC
:1026E000CF93DF9397FF1AC06B017C016DE281EEFF
:1026F0009AE00E94E803EC0166277727CB016C196A
:102700007D098E099F094AE053DF8C0F9D1FDF91E1
:10271000CF91FF90EF90DF90CF9008954AE0DF9146
:10272000CF91FF90EF90DF90CF9042CFCF93DF9388
:10273000BC01990F880B990BCFDFEC0134DF8C0FB4
:102740009D1FDF91CF910895CF9397FD06C08A30EA
:1027500091052CF089E090E002C080E090E0909339
:10276000810B8093800B880F991FFC01EC57F44F6D
:10277000C08160E085E30E94EB0681E18BDD8C2F58
:1027800089DD61E085E3CF910C94EB0620913D0259
:1027900030913E022817390779F090933E028093DA
:1027A0003D02069749F480913C028A3011F08AE09C
:1027B00001C083E080933C020895E8EAFBE090E0EA
:1027C0002FEF3FEF981791F04191242748E0B9018E
:1027D0006170772736952795672B21F051E02527E3
:1027E00050EA3527415099F79F5FECCF922F832F06
:1027F00008951F93CF93DF9300D01F92CDB7DEB71C
:102800001091E80B812FD9DFE12FF0E0E156F44F72
:102810009187E1E0E10FF0E0E156F44F81871E5F20
:102820001093E80B8091A50B823018F061E00E94B4
:10283000EB068091A40B4091E80B843028F4809142
:102840009F0B9091A00B04C08091A10B9091A20BC3
:1028500050E0DC01ED91FC910280F381E02D68EA0B
:102860007BE019958091A50B823090F18091A40BAB
:10287000843058F480919F0B9091A00BDC01ED9176
:10288000FC910680F781E02D19958091FC0B9091C9
:10289000FD0BA091FE0BB091FF0B89839A83AB8354
:1028A000BC8389819A81AB81BC81AC01BD0141505F
:1028B00051096109710949835A836B837C83892B90
:1028C0008A2B8B2B71F760E08091A50B0E94EB06A1
:1028D0008091A40B843050F580919F0B9091A00BB8
:1028E000DC01ED91FC910284F385E02D199597FFB1
:1028F000F3CF1092E80B0E94B2076093F80B70932D
:10290000F90B8093FA0B9093FB0B8091EE0B909157
:10291000EF0B01969093EF0B8093EE0B0F900F90BF
:102920000F900F90DF91CF911F9108958091A10B8F
:102930009091A20BDC01ED91FC910284F385E02DD6
:10294000199597FFF3CFD5CF3F924F925F926F9239
:102950007F928F929F92AF92BF92CF92DF92EF922F
:10296000FF920F931F93CF93DF93CDB7DEB72C97D2
:102970000FB6F894DEBF0FBECDBF5C01DC015B96E5
:102980008D909C905C971696CD90DD90ED90FC908C
:102990001997C114D104E104F10439F0BFEFCB1A47
:1029A000DB0AEB0AFB0A312C07C0F401C080D1809E
:1029B000E280F38033243394F40181859285A385EA
:1029C000B4859C01AD012F5F3F4F4F4F5F4F29876B
:1029D0003A874B875C87260137011D821E821F8242
:1029E0001886F40181859285A385B4852D813E8169
:1029F0004F815885281739074A075B0708F063C0DD
:102A000089859A85AB85BC858C159D05AE05BF056E
:102A100050F482E0C82ED12CE12CF12C92E0492E0A
:102A2000512C612C712C9E012F5F3F4FB701A601E5
:102A3000C4010E945C09882309F445C089819A81F8
:102A4000AB81BC81892B8A2B8B2B41F0260137016E
:102A50009FEF491A590A690A790A05C0C414D504B6
:102A6000E604F70491F02D813E814F8158852F5F58
:102A70003F4F4F4F5F4F2D833E834F8358873FEF2C
:102A8000C31AD30AE30AF30AACCF0FEF1FEF2FEFFD
:102A90003FE0B301A201C4010E94BC08882399F061
:102AA000D50116964D915D916D917C9119974115C7
:102AB00051056105710549F093018201C4010E942D
:102AC000BC08811102C080E02AC0D50116964D9243
:102AD0005D926D927C921997332051F0D301C2011F
:102AE0000196A11DB11DF40180839183A283B3835C
:102AF000F5018789908DA18DB28D892B8A2B8B2B27
:102B000069F4D50157964D925D926D927C925A97D9
:102B100014968C911497806814968C9381E02C966F
:102B20000FB6F894DEBF0FBECDBFDF91CF911F91DE
:102B30000F91FF90EF90DF90CF90BF90AF909F905C
:102B40008F907F906F905F904F903F900895FC0121
:102B5000A089B1898C91A689B78982FD0FC09C910B
:102B6000818D8F5F8F73228D821749F0218DDF0158
:102B7000A20FB11D5D969C93818F08958C9108954D
:102B8000EF92FF920F931F93CF93DF93611571051F
:102B900011F480E01EC0FB0101900020E9F731979D
:102BA000E61BF70BA9F07B01EC010C811D810E0FD8
:102BB0001F1FB8015EDC882361F3288139818C8175
:102BC0009D81B701820F931F0E941B311D830C83CF
:102BD00081E0DF91CF911F910F91FF90EF900895C9
:102BE000EF92FF920F931F93CF93DF93EC01198223
:102BF00018821B821A821D821C826115710541F1A7
:102C00008B01FB0101900020E9F731977F01E61A63
:102C1000F70AB7012EDC2881398181110DC02115F9
:102C2000310519F0C9010E940C2F198218821D82EA
:102C30001C821B821A820CC0FD82EC82B801C90181
:102C4000DF91CF911F910F91FF90EF900C941B316A
:102C5000DF91CF911F910F91FF90EF9008953F92D8
:102C60004F925F926F927F928F929F92AF92BF929C
:102C7000CF92DF92EF92FF920F931F93CF93DF9348
:102C800010920D0910920C0948EE53E060E070E0DC
:102C900040930E0950930F09609310097093110926
:102CA0008DE592E090930B0980930A0925E331E0CA
:102CB000309317092093160924E331E03093190962
:102CC0002093180920E331E030931B0920931A095F
:102CD00021E331E030931D0920931C0922E331E008
:102CE00030931F0920931E0926E331E03093210918
:102CF000209320091092230910922409109225098B
:102D0000109226091092AA091092A9094093AB09C2
:102D10005093AC096093AD097093AE099093A809E4
:102D20008093A70925ED30E03093B4092093B309CF
:102D300024ED30E03093B6092093B50920ED30E062
:102D40003093B8092093B70921ED30E03093BA09E8
:102D50002093B90922ED30E03093BC092093BB09E0
:102D600026ED30E03093BE092093BD091092C009D2
:102D70001092C1091092C2091092C3091092470A19
:102D80001092460A4093480A5093490A60934A0AAF
:102D900070934B0A9093450A8093440A2DEC30E0DF
:102DA0003093510A2093500A2CEC30E03093530AB0
:102DB0002093520A28EC30E03093550A2093540AAD
:102DC00029EC30E03093570A2093560A2AEC30E081
:102DD0003093590A2093580A2EEC30E030935B0A66
:102DE00020935A0A10925D0A10925E0A10925F0AAE
:102DF0001092600A1092E40A1092E30A4093E50AE6
:102E00005093E60A6093E70A7093E80A9093E20A07
:102E10008093E10A85EC90E09093EE0A8093ED0AAE
:102E200084EC90E09093F00A8093EF0A80EC90E0BD
:102E30009093F20A8093F10A81EC90E09093F40A67
:102E40008093F30A82EC90E09093F60A8093F50A5F
:102E500086EC90E09093F80A8093F70A1092FA0AB1
:102E60001092FB0A1092FC0A1092FD0A80E5C82E0F
:102E7000C0927E0B10927F0B1092191010921A10B4
:102E800010921D1010921F1082E090E0A0E0B0E0C0
:102E90008093201090932110A0932210B0932310C0
:102EA0001092371010924110109240108FE692E06D
:102EB00090933F1080933E10109243108EE090E06C
:102EC0000E94742EFC0115821482178216821186CC
:102ED0001086138612861586148688ED9FE09183EE
:102EE000808388EF9FE0938382831092C60F92E0E5
:102EF000E92EE092C70F84EE92E09093C90F809381
:102F0000C80F1092CB0F1092CA0F1092CF0F1092D1
:102F1000CE0F1092D10F1092D00F1092CD0F1092B1
:102F2000CC0FF093D30FE093D20F1092B80F2AE09A
:102F3000822E8092B90F8FEE92E09093BB0F809318
:102F4000BA0F1092BD0F1092BC0F1092C10F1092C9
:102F5000C00F1092C30F1092C20F1092BF0F1092A9
:102F6000BE0F1092C50F1092C40F8EE090E00E9429
:102F7000742EFC0115821482178216821186108627
:102F800013861286158614868CED9FE091838083CC
:102F90008CEF9FE0938382831092AA0F03E000934B
:102FA000AB0F8CEF92E09093AD0F8093AC0F10922B
:102FB000AF0F1092AE0F1092B30F1092B20F10928B
:102FC000B50F1092B40F1092B10F1092B00FF09392
:102FD000B70FE093B60F8EE090E00E94742EFC01D4
:102FE0001582148217821682118610861386128625
:102FF000158614868EED9FE0918380838EEF9FE08F
:103000009383828310929C0F14E010939D0F86E0AF
:1030100093E090939F0F80939E0F1092A10F1092B8
:10302000A00F1092A50F1092A40F1092A70F10924C
:10303000A60F1092A30F1092A20FF093A90FE09386
:10304000A80F8EE090E00E94742EFC01158214827D
:1030500017821682118610861386128615861486AC
:1030600080EE9FE09183808380E090E19383828370
:1030700010928E0FD5E0D0938F0F80E193E0909364
:10308000910F8093900F1092930F1092920F1092C5
:10309000970F1092960F1092990F1092980F10920E
:1030A000950F1092940FF0939B0FE0939A0F8EE080
:1030B00090E00E94742EFC01158214821782168201
:1030C00011861086138612861586148682EE9FE07E
:1030D0009183808382E090E19383828337E0F32EB3
:1030E000F092800FE092810F8AE193E09093830F3A
:1030F0008093820F1092850F1092840F1092890F87
:103100001092880F10928B0F10928A0F1092870FD7
:103110001092860FF0938D0FE0938C0FF092720F48
:103120000093730F89E293E09093750F8093740F6F
:103130001092770F1092760F10927B0F10927A0FE9
:1031400010927D0F10927C0F1092790F1092780FD1
:10315000F0937F0FE0937E0FF092640F1093650F52
:1031600088E393E09093670F8093660F1092690F46
:103170001092680F10926D0F10926C0F10926F0FDB
:1031800010926E0F10926B0F10926A0FF093710FE6
:10319000E093700F1092560F40E1D42ED092570F4B
:1031A00087E493E09093590F8093580F10925B0F30
:1031B00010925A0F10925F0F10925E0F1092610FD3
:1031C0001092600F10925D0F10925C0FF093630FDE
:1031D000E093620F8EE090E00E94742EFC01158255
:1031E000148217821682118610861386128615861F
:1031F000148684EE9FE09183808384E090E1938342
:103200008283C1E0C093480F81E58093490F85E533
:1032100093E090934B0F80934A0F10924D0F1092B2
:103220004C0F1092510F1092500F1092530F10929A
:10323000520F10924F0F10924E0FF093550FE093D4
:10324000540FC0933A0FC0923B0F80E693E09093E7
:103250003D0F80933C0F10923F0F10923E0F109243
:10326000430F1092420F1092450F1092440F10928C
:10327000410F1092400FF093470FE093460F1092CA
:103280002C0F58E1652E60922D0F8DE693E0909300
:103290002F0F80932E0F1092310F1092300F10923B
:1032A000350F1092340F1092370F1092360F109284
:1032B000330F1092320FF093390FE093380F8EE0F6
:1032C00090E00E94742EFC011582148217821682EF
:1032D00011861086138612861586148686EE9FE068
:1032E0009183808386E090E193838283D0931E0F45
:1032F0006EE0B62EB0921F0F87E793E09093210FF8
:103300008093200F1092230F1092220F1092270FFC
:103310001092260F1092290F1092280F1092250F4D
:103320001092240FF0932B0FE0932A0FD093100FDD
:1033300076E1772E7092110F80E893E09093130F4F
:103340008093120F1092150F1092140F1092190FF4
:103350001092180F10921B0F10921A0F1092170F45
:103360001092160FF0931D0FE0931C0FD093020FD5
:10337000A5E1AA2EA092030F89E893E09093050F90
:103380008093040F1092070F1092060F10920B0FEC
:1033900010920A0F10920D0F10920C0F1092090F3D
:1033A0001092080FF0930F0FE0930E0FD093F40ECE
:1033B00084E18093F50E22E933E03093F70E2093F9
:1033C000F60E1092F90E1092F80E1092FD0E109259
:1033D000FC0E1092FF0E1092FE0E1092FB0E109239
:1033E000FA0EF093010FE093000F1092E60E809317
:1033F000E70E8BE993E09093E90E8093E80E10922C
:10340000EB0E1092EA0E1092EF0E1092EE0E10924A
:10341000F10E1092F00E1092ED0E1092EC0EF09351
:10342000F30EE093F20E8EE090E00E94742EFC0109
:1034300015821482178216821186108613861286D0
:103440001586148688EE9FE09183808388E090E162
:1034500093838283D093D80ED092D90E87EA93E0DB
:103460009093DB0E8093DA0E1092DD0E1092DC0E3C
:103470001092E10E1092E00E1092E30E1092E20E06
:103480001092DF0E1092DE0EF093E50EE093E40E44
:10349000D093CA0EBFE0CB2EC092CB0E82EB93E04E
:1034A0009093CD0E8093CC0E1092CF0E1092CE0E34
:1034B0001092D30E1092D20E1092D50E1092D40EFE
:1034C0001092D10E1092D00EF093D70EE093D60E3C
:1034D0001092BC0EA092BD0E8EEB93E09093BF0EA7
:1034E0008093BE0E1092C10E1092C00E1092C50EA7
:1034F0001092C40E1092C70E1092C60E1092C30EF8
:103500001092C20EF093C90EE093C80E8EE090E0C8
:103510000E94742EFC011582148217821682118675
:10352000108613861286158614868AEE9FE0918394
:1035300080838AE090E193838283C093AE0E8BE018
:10354000582E5092AF0E8BEC93E09093B10E809377
:10355000B00E1092B30E1092B20E1092B70E1092DF
:10356000B60E1092B90E1092B80E1092B50E1092BF
:10357000B40EF093BB0EE093BA0EC093A00E9CE085
:10358000992E9092A10E89ED93E09093A30E8093D3
:10359000A20E1092A50E1092A40E1092A90E1092D7
:1035A000A80E1092AB0E1092AA0E1092A70E1092B7
:1035B000A60EF093AD0EE093AC0EC093920E2DE0EC
:1035C000A22EA092930E87EE93E09093950E809397
:1035D000940E1092970E1092960E10929B0E1092CF
:1035E0009A0E10929D0E10929C0E1092990E1092AF
:1035F000980EF0939F0EE0939E0E8EE090E00E9456
:10360000742EFC0115821482178216821186108690
:10361000138612861586148686E59EE09183808344
:1036200084E79EE093838283C0936B10C0936C10F9
:1036300085EF93E090936E1080936D101092701050
:1036400010926F10109274101092731010927610E6
:10365000109275101092721010927110F0937810F1
:10366000E09377108EE090E00E94742EFC011582AA
:10367000148217821682118610861386128615868A
:10368000148688E59EE09183808386E79EE093839D
:103690008283C093480EE092490E8EEF93E09093A0
:1036A0004B0E80934A0E10924D0E10924C0E1092BB
:1036B000510E1092500E1092530E1092520E109204
:1036C0004F0E10924E0EF093550EE093540E8EE076
:1036D00090E00E94742EFC011582148217821682DB
:1036E0001186108613861286158614868AE59EE05A
:1036F0009183808388E79EE093838283C0933A0E10
:1037000000933B0E86E094E090933D0E80933C0E38
:1037100010923F0E10923E0E1092430E1092420EE7
:103720001092450E1092440E1092410E1092400ECF
:10373000F093470EE093460E8EE090E00E94742EC8
:10374000FC01158214821782168211861086138658
:103750001286158614868CE59EE0918380838AE725
:103760009EE093838283C0932C0E10932D0E8FE0E6
:1037700094E090932F0E80932E0E1092310E1092A3
:10378000300E1092350E1092340E1092370E1092A9
:10379000360E1092330E1092320EF093390EE093E3
:1037A000380E8EE090E00E94742EFC01118210828F
:1037B0001382128215821482178216821186108655
:1037C0001386128615861486C0931E0E36E0432E8D
:1037D00040921F0E8CE194E09093210E8093200E76
:1037E0001092230E1092220E1092270E1092260E87
:1037F0001092290E1092280E1092250E1092240E6F
:10380000F0932B0EE0932A0E8EE090E00E94742E2F
:10381000FC01158214821782168211861086138687
:103820001286158614868EE59EE0918380838CE750
:103830009EE093838283C093100ED093110E88E292
:1038400094E09093130E8093120E1092150E109226
:10385000140E1092190E1092180E10921B0E109248
:103860001A0E1092170E1092160EF0931D0EE09382
:103870001C0E8EE090E00E94742EFC0115821482D2
:103880001782168211861086138612861586148674
:1038900080E69EE0918380838EE79EE0938382831F
:1038A000C093020E86E58093030E85E394E0909327
:1038B000050E8093040E1092070E1092060E1092C1
:1038C0000B0E10920A0E10920D0E10920C0E10920A
:1038D000090E1092080EF0930F0EE0930E0E8EE07C
:1038E00090E00E94742EFC011582148217821682C9
:1038F00011861086138612861586148682E69EE04F
:103900009183808380E89EE093838283C093F40D4B
:10391000F092F50D82E494E09093F70D8093F60D0C
:103920001092F90D1092F80D1092FD0D1092FC0DF1
:103930001092FF0D1092FE0D1092FB0D1092FA0DD9
:10394000F093010EE093000E8EE090E00E94742E42
:10395000FC01118210821382128215821482178256
:103960001682118610861386128615861486C093D9
:10397000E60D48E0342E3092E70D81E594E0909317
:10398000E90D8093E80D1092EB0D1092EA0D109264
:10399000EF0D1092EE0D1092F10D1092F00D1092AD
:1039A000ED0D1092EC0DF093F30DE093F20D8EE01F
:1039B00090E00E94742E8C01DC0115961C921E92E0
:1039C000149717961C921E92169719961C921E9287
:1039D00018971B961C921E921A971D961C921E9267
:1039E0001C9784E69EE011969C938E9382E89EE05D
:1039F00013969C938E931297D093D80D6092D90D05
:103A000080E694E09093DB0D8093DA0D1092DD0D4B
:103A10001092DC0D1092E10D1092E00D1092E30D6A
:103A20001092E20D1092DF0D1092DE0D1093E50D55
:103A30000093E40DD093CA0DD9E1D093CB0D8EE65F
:103A400094E09093CD0D8093CC0D1092CF0D1092F9
:103A5000CE0D1092D30D1092D20D1092D50D109262
:103A6000D40D1092D10D1092D00D1093D70D00935C
:103A7000D60D8EE090E00E94742EFC011582148217
:103A80001782168211861086138612861586148672
:103A900086E69EE09183808384E89EE09383828320
:103AA000C093BC0D59E0652E6092BD0D8DE794E08A
:103AB0009093BF0D8093BE0D1092C10D1092C00D5A
:103AC0001092C50D1092C40D1092C70D1092C60D24
:103AD0001092C30D1092C20DF093C90DE093C80D62
:103AE0008EE090E00E94742EFC01158214821782F1
:103AF000168211861086138612861586148688E62D
:103B00009EE09183808386E89EE093838283C093C6
:103B1000AE0D8092AF0D8AE894E09093B10D809342
:103B2000B00D1092B30D1092B20D1092B70D10920D
:103B3000B60D1092B90D1092B80D1092B50D1092ED
:103B4000B40DF093BB0DE093BA0D8EE090E00E94AF
:103B5000742EFC011582148217821682118610863B
:103B600013861286158614868AE69EE091838083EA
:103B700088E89EE093838283C093A00D83E18093C5
:103B8000A10D89E994E09093A30D8093A20D10926A
:103B9000A50D1092A40D1092A90D1092A80D1092CF
:103BA000AB0D1092AA0D1092A70D1092A60DF093D6
:103BB000AD0DE093AC0D8EE090E00E94742EFC0100
:103BC0001582148217821682118610861386128639
:103BD000158614868CE69EE0918380838AE89EE0B9
:103BE00093838283C093920D84E58093930D88EA3A
:103BF00094E09093950D8093940D1092970D1092F0
:103C0000960D10929B0D10929A0D10929D0D109290
:103C10009C0D1092990D1092980DF0939F0DE093CA
:103C20009E0D8EE090E00E94742EFC01158214829D
:103C300017821682118610861386128615861486C0
:103C40008EE69EE0918380838CE89EE0938382835E
:103C5000C093840D85E58093850D83EB94E090936C
:103C6000870D8093860D1092890D1092880D109209
:103C70008D0D10928C0D10928F0D10928E0D109252
:103C80008B0D10928A0DF093910DE093900D109290
:103C9000760DF092770D81EC94E09093790D8093FE
:103CA000780D10927B0D10927A0D10927F0D10926C
:103CB0007E0D1092810D1092800D10927D0D10924C
:103CC0007C0D1092830D1092820D1092680D30922F
:103CD000690D88EC94E090936B0D80936A0D1092BF
:103CE0006D0D10926C0D1092710D1092700D10925E
:103CF000730D1092720D10926F0D10926E0D109246
:103D0000750D1092740D10925A0D60925B0D80ED3E
:103D100094E090935D0D80935C0D10925F0D109276
:103D20005E0D1092630D1092620D1092650D10924F
:103D3000640D1092610D1092600D1092670D10923B
:103D4000660D10924C0D50924D0D8CED94E09093B9
:103D50004F0D80934E0D1092510D1092500D1092F8
:103D6000550D1092540D1092570D1092560D109241
:103D7000530D1092520D1092590D1092580D109231
:103D80003E0D90923F0D87EE94E09093410D80930D
:103D9000400D1092430D1092420D1092470D10925B
:103DA000460D1092490D1092480D1092450D10923B
:103DB000440D10924B0D10924A0D1092300DA092AE
:103DC000310D85EF94E09093330D8093320D109276
:103DD000350D1092340D1092390D1092380D10924D
:103DE0003B0D10923A0D1092370D1092360D109235
:103DF0003D0D10923C0D1092220DB092230D84E0E7
:103E000095E09093250D8093240D1092270D10922C
:103E1000260D10922B0D10922A0D10922D0D10923E
:103E20002C0D1092290D1092280D10922F0D10922A
:103E30002E0D10925D10C0925E1080E195E090937F
:103E4000601080935F1010926210109261101092B7
:103E50006610109265101092681010926710109200
:103E600064101092631010926A10109269101092F0
:103E7000140D7092150D8DE195E09093170D8093C0
:103E8000160D1092190D1092180D10921D0D109212
:103E90001C0D10921F0D10921E0D10921B0D1092F2
:103EA0001A0D1092210D1092200D1092060D87E12F
:103EB0008093070D88E295E09093090D8093080D9B
:103EC00010920B0D10920A0D10920F0D10920E0D04
:103ED0001092110D1092100D10920D0D10920C0DEC
:103EE0001092130D1092120D1092F80CD093F90C41
:103EF00086E395E09093FB0C8093FA0C1092FD0CF6
:103F00001092FC0C1092010D1092000D1092030DF6
:103F10001092020D1092FF0C1092FE0C1092050DE3
:103F20001092040D1092EA0C8AE18093EB0C84E469
:103F300095E09093ED0C8093EC0C1092EF0C1092A6
:103F4000EE0C1092F30C1092F20C1092F50C1092F1
:103F5000F40C1092F10C1092F00C1092F70C1092DD
:103F6000F60C1092DC0C8BE18093DD0C8EE495E076
:103F70009093DF0C8093DE0C1092E10C1092E00C19
:103F80001092E50C1092E40C1092E70C1092E60CE3
:103F90001092E30C1092E20C1092E90C1092E80CD3
:103FA0001092CE0C8CE18093CF0C8BE595E0909332
:103FB000D10C8093D00C1092D30C1092D20C109292
:103FC000D70C1092D60C1092D90C1092D80C1092DB
:103FD000D50C1092D40C1092DB0C1092DA0C1092CB
:103FE000C00C8DE18093C10C87E695E09093C30CE3
:103FF0008093C20C1092C50C1092C40C1092C90C84
:104000001092C80C1092CB0C1092CA0C1092C70CD4
:104010001092C60C1093CD0C0093CC0C4092B40CB3
:104020005092B50C86E795E09093B70C8093B60C50
:104030001092B90C1092B80C1092BD0C1092BC0CDE
:104040001092BF0C1092BE0C1092BB0C1092BA0CC6
:104050004092A80C9092A90C80E895E09093AB0C4C
:104060008093AA0C1092AD0C1092AC0C1092B10C73
:104070001092B00C1092B30C1092B20C1092AF0CC4
:104080001092AE0C40929C0CA0929D0C8AE895E098
:1040900090939F0C80939E0C1092A10C1092A00CF8
:1040A0001092A50C1092A40C1092A70C1092A60CC2
:1040B0001092A30C1092A20C4092900CB092910C12
:1040C00084E995E09093930C8093920C1092950C58
:1040D0001092940C1092990C1092980C10929B0CC8
:1040E00010929A0C1092970C1092960C4092840C9D
:1040F000C092850C8EE995E09093870C8093860C96
:104100001092890C1092880C10928D0C10928C0CCD
:1041100010928F0C10928E0C10928B0C10928A0CB5
:104120004092780CD092790C88EA95E090937B0CC1
:1041300080937A0C10927D0C10927C0C1092810C62
:104140001092800C1092830C1092820C10927F0CB3
:1041500010927E0C40926C0C81E180936D0C82EB8E
:1041600095E090936F0C80936E0C1092710C1092EE
:10417000700C1092750C1092740C1092770C1092B7
:10418000760C1092730C1092720C1092600C1092BC
:10419000610C8CEB95E09093630C8093620C109211
:1041A000650C1092640C1092690C1092680C1092BD
:1041B0006B0C10926A0C1092670C1092660CC093F4
:1041C000540C1092550C89EF93E09093570C809308
:1041D000560C1092590C1092580C10925D0C1092C3
:1041E0005C0C10925F0C10925E0C10925B0C1092A3
:1041F0005A0CE092480C1092490C87EE98E090938C
:104200004B0C80934A0C10924D0C10924C0C109257
:10421000510C1092500C1092530C1092520C1092A0
:104220004F0C10924E0C1092410C80EA9DE090933E
:10423000430C8093420C86EE9DE09093450C809356
:10424000440C8EE19EE09093470C8093460C1092B4
:10425000020C1092010C8CE3E3E0FCE0DF011D9204
:104260008A95E9F71092400C10923F0CE1E0FCE0D7
:104270001382128214821582168217823696BCE04F
:10428000ED33FB07A9F782E08093A30B8093A40B87
:1042900082E28093A50B88EE93E09093F30B8093DA
:1042A000F20B1092FC0B1092FD0B1092FE0B109271
:1042B000FF0B1092980B1092990B10929A0B109280
:1042C0009B0B10929D0B10929C0B10929E0B1092C8
:1042D000810B1092800B8AE090E09093830B809387
:1042E000820B84E1E5E4F2E0A4E8BBE001900D92EA
:1042F0008A95E1F7DF91CF911F910F91FF90EF9099
:10430000DF90CF90BF90AF909F908F907F906F90F5
:104310005F904F903F900895CF93DF93CDB7DEB776
:104320006E970FB6F894DEBF0FBECDBF789484B5FC
:10433000826084BD84B5816084BD85B5826085BDA1
:1043400085B5816085BD80916E00816080936E002F
:104350001092810080918100826080938100809121
:1043600081008160809381008091800081608093D2
:1043700080008091B10084608093B1008091B00092
:1043800081608093B0008091910082608093910061
:104390008091910081608093910080919000816074
:1043A000809390008091A10082608093A100809111
:1043B000A10081608093A1008091A0008160809322
:1043C000A0008091210182608093210180912101D0
:1043D0008160809321018091200181608093200180
:1043E00080917A00846080937A0080917A00826064
:1043F00080937A0080917A00816080937A00809126
:104400007A00806880937A001092C1008091A40B9A
:10441000823039F0833041F0813049F484E49AE00D
:1044200008C087EA99E005C08AE099E002C081EE01
:104430009AE09093A00B80939F0B40E051EE60E0D8
:1044400070E080919F0B9091A00B0E946012809170
:10445000A50B823040F061E00E94190760E0809176
:10446000A50B0E94EB0680919F0B9091A00BDC01A5
:10447000ED91FC910284F385E02D199597FFF3CF20
:104480001092E80B1092E90B1092F10B1092F00BC6
:104490001092EF0B1092EE0B1092ED0B1092EC0BB2
:1044A00040E855E260E070E084E49AE00E94601227
:1044B00061E08CE10E94190761E08EE10E9419071A
:1044C00061E080E20E94190761E08CE20E94190716
:1044D00061E080E30E94190761E08EE20E94190703
:1044E00010929E0B60E08EE20E94EB0661E085E395
:1044F0000E9419071FB7F89480917D10811127C081
:10450000E1EFF1E08491EBEAF1E09491E82FF0E043
:10451000EE0FFF1FE45AFE4FA591B491EC91E923F1
:1045200021F461E085E30E94EB0661E085E30E94EF
:1045300019078CB580618CBD8CB580648CBD61E041
:1045400084E30E94190761E083E30E9419078091C8
:104550007D108F5F80937D101FBF61E088E20E9415
:10456000190761E08AE20E94190740E051EE60E01D
:1045700070E08AE099E00E94601289E099E00E9470
:104580002C0E84EC95E00E942C0E8CEC95E00E94A1
:104590002C0EFEE1EF2EFEE0FF2E2AE33CE03093EE
:1045A000230E2093220EF092250EE092240EA4EF0B
:1045B000BDE018EEC12E1BE0D12ED092F90DC092B5
:1045C000F80DB093FB0DA093FA0D8FE59CE090934E
:1045D000FD0D8093FC0DB093FF0DA093FE0D309365
:1045E000EB0D2093EA0DE6EEFDE0F093ED0DE09388
:1045F000EC0DD092C10DC092C00D0CEB1DE01093DC
:10460000C30D0093C20D9093C50D8093C40D1093FC
:10461000C70D0093C60D0EEA802E0EE0902E2FEFF0
:104620003BE03093B30E2093B20E9092B50E809281
:10463000B40E3093A50E2093A40E40EA5EE0509392
:10464000A70E4093A60E3093970E2093960E22E964
:104650003EE03093990E2093980E2EEAA22E2DE084
:10466000B22E2EE83CE03093B30D2093B20DB09201
:10467000B50DA092B40D30E8432E3FE0532E2EEE40
:104680003CE03093850F2093840F5092870F409227
:10469000860F2BEE3CE03093770F2093760F22E7C6
:1046A0003FE03093790F2093780F28EE3CE0309371
:1046B000690F2093680F24E63FE030936B0F20933F
:1046C0006A0F2FEC3DE030934D0F20934C0F6CE2BE
:1046D0007FE070934F0F60934E0F2DEC3DE03093D1
:1046E0003F0F20933E0F7093410F6093400F24E8DB
:1046F0003DE03093CF0E2093CE0E2CEB3EE0309376
:10470000D10E2093D00E46E85DE05093DD0E40932D
:10471000DC0E3093DF0E2093DE0E41EF5CE0509311
:10472000230F4093220FEEE16E2EEFE07E2E70926B
:10473000250F6092240F5093150F4093140FF0E152
:104740006F2EFFE07F2E7092170F6092160F50931E
:10475000070F4093060F12E0612E1FE0712E70923A
:10476000090F6092080F5093F90E4093F80E44EF32
:104770005EE05093FB0E4093FA0E00EA602E0DE0CF
:10478000702E46E25CE05093A50D4093A40D70920C
:10479000A70D6092A60D42E95DE0D092970DC09200
:1047A000960D5093990D4093980D90939B0D809387
:1047B0009A0D50939D0D40939C0D83EC9CE090933B
:1047C000650C8093640C1092670C1092660C88ED57
:1047D000282E8DE0382E8FEC9BE09093DD0D80939A
:1047E000DC0D3092DF0D2092DE0D83EC9BE0909388
:1047F000CF0D8093CE0D8AEC9DE09093D10D8093E8
:10480000D00DC090540ED090550E81E191E1F6018B
:104810009187808708E41EE01387028706E71DE082
:1048200015870487C090460ED090470EF6019187F9
:1048300080870AE31EE01387028708E61DE01587DC
:104840000487C090380ED090390EF601918780878A
:104850000CE21EE0138702870AE51DE01587048736
:10486000C0901C0ED0901D0E0DEA1FE0F6011187BE
:10487000008700E11EE01387028708EB1FE0158721
:104880000487C090000ED090010EF60191878087BA
:10489000B387A287AEE3BDE0B587A487A0912A0EB7
:1048A000B0912B0EE0EDCE2EE0E1DE2E1996DC92DB
:1048B000CE9218971B96FC92EE921A97FCE4EF2E7C
:1048C000FDE0FF2E1D96FC92EE921C97A091F20D3A
:1048D000B091F30D10EBE12E10E1F12E1996FC9240
:1048E000EE92189706EEC02E0DE0D02E1B96DC92AD
:1048F000CE921A9700E31DE01D961C930E931C9711
:10490000A091C80DB091C90D19969C938E931897DC
:10491000ECEBEE2EEDE0FE2E1B96FC92EE921A973B
:10492000E2E2FDE01D96FC93EE931C97A091BA0D78
:10493000B091BB0DFBE3CF2EF0E1DF2E1996DC9298
:10494000CE9218971B96BC92AE921A9706E01DE085
:104950001D961C930E931C97A091BA0EB091BB0E9E
:1049600000EF10E119961C930E9318971B969C92DA
:104970008E921A9704E11DE01D961C930E931C97CE
:104980000091D20F1091D30FA6E6BFE0F801B187D6
:10499000A0871386128616ECE12E1FE0F12EF58615
:1049A000E4860091B60F1091B70FF801B187A08788
:1049B000138612860AEAE02E0FE0F02EF586E486D2
:1049C0000091A80F1091A90FF801B187A087138655
:1049D00012861CE9E12E1FE0F12EF586E486009197
:1049E0009A0F10919B0FF801B187A087138612864A
:1049F000AEE8BFE0B587A487A091AC0DB091AD0D36
:104A00000EE610E119961C930E9318971B967C9254
:104A10006E921A9708EF1CE01D961C930E931C973C
:104A2000A091380FB091390F07E21FE019961C933F
:104A30000E9318971B961C921E921A971D967C93A4
:104A40006E931C97A0918C0FB0918D0F1996DC92EC
:104A5000CE9218971B965C924E921A9766E57FE06D
:104A60001D967C936E931C97A0919E0DB0919F0D07
:104A700019969C938E9318971B965C934E931A9756
:104A80004AEE5CE01D965C934E931C97A091900DAE
:104A9000B091910D19969C938E93189744E85DE020
:104AA0001B965C934E931A974CED5CE01D965C93BD
:104AB0004E931C97A091C80EB091C90E19961C93E5
:104AC0000E9318971B961C921E921A971D963C9354
:104AD0002E931C97A091F20EB091F30E19961C9391
:104AE0000E9318971B961C921E921A9726EE3EE084
:104AF0001D963C932E931C97A0910E0EB0910F0E15
:104B000019969C938E93189782E09EE01B969C9337
:104B10008E931A978EEC9CE01D969C938E931C9717
:104B2000A091E40DB091E50D1996DC92CE92189704
:104B30001B963C922E921A9780EC9CE01D969C93BB
:104B40008E931C9780E090E00E94C30C8DED9BE05B
:104B50009093020C8093010C61E08FE10E94190791
:104B600061E081E20E94190761E083E20E94190777
:104B700060E085E20E94190762E087E20E9419075F
:104B800061E08FE10E94EB0661E081E20E94EB06AA
:104B900061E083E20E94EB0661E087E10E94190771
:104BA00061E089E10E94190761E08BE10E94190729
:104BB0008E010F5F1F4F4801C8010E942C1389818D
:104BC0009A81069720F183ED95E00E941F1364E619
:104BD00070E080E090E00E947A0783ED95E00E940B
:104BE0001F1364E670E080E090E00E947A0783ED96
:104BF00095E00E941F1364E670E080E090E00E9460
:104C00007A0786EF95E00E941F130E94DC11E09165
:104C1000F20EF091F30E89819A81A081B1818D937A
:104C20009C9395838483E091C80EF091C90E8D8189
:104C30009E81A081B1818D939C9395838483E09123
:104C4000380FF091390FA081B1818F8198859583BC
:104C500084838D939C93E091AC0DF091AD0DA08178
:104C6000B181898590E0958384838D939C938F8116
:104C700098850E94A41340E855E260E070E081EE60
:104C80009AE00E9460126BE176E081EE9AE00E9469
:104C9000D2124AE062E070E080E090E00E94D81218
:104CA0006EE281EE9AE00E94E80380E090E00E94CC
:104CB0001A1386E090E00E941A138CE296E00E949C
:104CC0001F13412C512C320143940E94B2070091D2
:104CD000980B1091990B20919A0B30919B0B6B01C3
:104CE0007C01C01AD10AE20AF30A97018601043650
:104CF00011052105310508F4C1C06093980B70932C
:104D0000990B80939A0B90939B0B84E49AE00E94FA
:104D10009603181619060CF0B1C08AE08D8B00E0DE
:104D200010E084E49AE00E949603892BB9F084E4B1
:104D30009AE00E9474030A3011054CF4E5E1F0E0BA
:104D4000EC0FFD1FE00FF11F80830F5F1F4F61E02D
:104D500070E080E090E00E947A07E3CF0D8910E0D8
:104D6000005311098091020290910302081719075C
:104D700029F0109303020093020280C00D3F2FEF31
:104D8000120719F0C8010E9496138EE0E7E7F2E0DF
:104D9000D40101900D928A95E1F7809100029091E3
:104DA00001020817190729F18D3F3FEF930761F0C2
:104DB000880F991FF401E80FF91F40E050E0BA0195
:104DC000808191810E944F0E109301020093000296
:104DD0000D3F4FEF140769F0F801EE0FFF1FE80DCC
:104DE000F91D41E050E060E070E0808191810E9417
:104DF0004F0EF8013396EA30F10508F03FC08827DE
:104E0000EE58FF4F8F4F0C9409308DEF9FEF0DC080
:104E10008EEA9EE005C080EA9EE002C082E99EE044
:104E20000E94FF0B04C086E090E00E94C61300E0E1
:104E300010E0B6C501E010E061E08CE10E94EB06F5
:104E400061E00130110509F060E080E30E94EB06AB
:104E500061E00230110509F060E080E20E94EB069B
:104E6000FF24F3940330110509F0F12C6F2D8EE12E
:104E70000E94EB066F2D8CE20E94EB068AE099E01F
:104E80000E949603181619060CF049C061E070E004
:104E900080E090E00E947A078AE099E00E94740323
:104EA000182F853659F78AE099E00E9496030697F5
:104EB0002CF310937E100FE710E18AE099E00E9436
:104EC0007403D8018D938D01B0E105381B07A9F754
:104ED00010928510809182108F3F81F6809183100F
:104EE0008F3F61F6809184108F3F41F64091811091
:104EF00050E060E070E09091801020917F10E4E03D
:104F0000F2E0A191B191109709F4B8CF8C912813D8
:104F1000F8CF11968C9111979813F3CF43C556E5AE
:104F2000252E5EE0352EF10140E050E020E030E03B
:104F30008191919181709927022E02C0880F991F4B
:104F40000A94E2F7480F591F2F5F3F4F2F3031056A
:104F500079F75093D50F4093D40FE4EDFFE0F09331
:104F6000EB0BE093EA0B80E28093000C8091A40BA2
:104F7000843028F480919F0B9091A00B04C0809105
:104F8000A10B9091A20BDC01ED91FC910084F185C5
:104F9000E02D1995882309F438C19091E90B891700
:104FA00069F08093E90B0E94B2076093F40B709351
:104FB000F50B8093F60B9093F70B27C10E94B20775
:104FC0000091F40B1091F50B2091F60B3091F70B3B
:104FD000DC01CB01801B910BA20BB30B0597A10544
:104FE000B10508F412C11092E90B8091A50B823033
:104FF00018F060E00E94EB061092E80B8091A40B81
:10500000F12C843008F045C080919F0B9091A00B4B
:10501000DC01ED91FC910084F185E02D1995892B3F
:1050200009F444C00091E80B10E080919F0B90912F
:10503000A00BDC01ED91FC910284F385E02D199524
:10504000F801E156F44F81878091E80B8F5F8093E0
:10505000E80B8034C8F2FF24F394D6CF0091E80B1C
:1050600010E08091A10B9091A20BDC01ED91FC91DD
:105070000284F385E02D1995F801E156F44F8187FC
:105080008091E80B8F5F8093E80B803410F0FF2451
:10509000F3948091A10B9091A20BDC01ED91FC9116
:1050A0000084F185E02D1995892BC1F68091EC0BD8
:1050B0009091ED0B01969093ED0B8093EC0BFF20FC
:1050C00059F08091F00B9091F10B01969093F10BB8
:1050D0008093F00B8DEF02C08091E80B8093A70BBB
:1050E00087300CF492C09091A80B8091A30B981379
:1050F0008CC08091E80B082F10E082500E94DD13D5
:10510000F801E156F44F278130E0322F2227408505
:10511000242B2817390759F08091F00B9091F10B4F
:1051200001969093F10B8093F00B1FEF35C0209107
:10513000A90BE5E8F2E08DE892E03191321709F42D
:1051400054C48E179F07C9F78091F00B9091F10B13
:1051500001969093F10B8093F00B11E012C08091B7
:10516000AA0B9091AB0B98278927982714E0969566
:1051700087951A95E1F79091000C981708F071C483
:1051800012E080E8820F8093A90B1093AA0B83E0B2
:105190008093E80B0E94F9131093A70B36C08091FF
:1051A000AA0B9091AB0B9827892798272091AC0BDD
:1051B0003091AD0B322723273227B901B3E0769522
:1051C0006795BA95E1F7E62FA90147705527411574
:1051D000510511F0E1E0E60FE093AA0B63E0609364
:1051E000E80BF0E0E156F44F1386280F391F70E00A
:1051F0002817390709F050C46093E80B452B19F0C4
:105200006F5F6093E80B0E94F9132091F40F3091C7
:10521000F50F64E7E62E6EE0F62EF701C90162E0B5
:1052200070E0E4D681939193C90137FD01969C010A
:10523000359527950EE0E239F00781F70FE912E086
:10524000D801ED91FD918D01309719F40DE812E030
:1052500005C0848595850E94FE11F2CFD801ED919D
:10526000FD918D01309729F0848595850E94FE116E
:10527000F5CF8091010C9091020C892B09F440C06C
:105280000E94B20720913F0C3091400C16E0129F13
:10529000A001139F500D1124DA01AF5FB34F149694
:1052A000AD90BD90CD90DC901797AB01BC014A1931
:1052B0005B096C097D09443F51406105710500F1AE
:1052C000E091010CF091020C12968D919C91139734
:1052D000199580913F0C9091400C189FF001199FF7
:1052E000F00D1124EF5FF34F1382128201968A3082
:1052F000910514F080E090E09093400C80933F0C77
:1053000085E20E94C30611E0009709F410E02091A5
:1053100096101217F9F0892B89F083E396E00E942A
:105320001F1361E08FE10E94EB0661E081E20E94C1
:10533000EB0661E083E20E94EB060AC081E496E09E
:105340000E941F13E091BA0EF091BB0E15821482D9
:105350001093961080919610882319F00E94E50D05
:10536000BBC010913C0280918E1081110DC00E9433
:10537000550760938A1070938B1080938C109093D4
:105380008D1081E080938E100E9455075B016C01A7
:1053900080918A1090918B10A0918C10B0918D10FB
:1053A000A6019501281B390B4A0B5B0BCA01B901F9
:1053B000643331E273078105910508F48DC024E35D
:1053C00031E240E050E0F0D5A0928A10B0928B100C
:1053D000C0928C10D0928D10223031051CF02150DB
:1053E000310902C020E030E080918810909189104E
:1053F000280F391FF901EE0FFF1FEE5FFD4F85915A
:1054000094912F5F3F4F243F41E0340728F43093BD
:1054100089102093881004C010928910109288106F
:105420009C0126573D4F09F499CF112309F496CFDB
:105430001B3008F01AE084B1806684B940E050E087
:1054400060E072E18AE790E0AFD559016A0181E03E
:10545000A81AB108C108D108A114B10491E0C90685
:10546000D10468F0BB27AD2D9C2D8B2D5C016D0107
:10547000E1E0AE1AB108C108D10804E001C001E0C2
:10548000E12FF0E0E254FD4F208130E040E050E0B9
:10549000C601B50189D5B0928700A092860080919F
:1054A000840090918500A0E0B0E0A816B906CA0675
:1054B000DB0620F4B0928500A09284000061009386
:1054C000810030938B0020938A00309389002093D1
:1054D000880080EB809380000E94550781EE9AE05F
:1054E0000E949603892B09F453C284E1D4011D92D2
:1054F0008A95E9F7840181EE9AE00E949603892B50
:1055000071F081EE9AE00E947403F80181938F019B
:1055100065E070E080E090E00E947A07ECCF63E500
:1055200076E0C4017FD6892BC1F588E596E00E941C
:105530001F138EE796E00E941F1389E996E00E94F0
:105540001F138BEC96E00E941F1381EF96E00E94E0
:105550001F1364E670E080E090E00E947A0785E027
:1055600097E00E941F1381E297E00E941F138CE3D3
:1055700097E00E941F1386E597E00E941F1364E6E0
:1055800070E080E090E00E947A0789E797E00E944F
:105590001F1387E997E00E941F1368EB77E0C401AF
:1055A00041D6892B09F058C00E94D3128FEB97E0A7
:1055B0000E941F1387ED97E00E941F13A12CB12CAE
:1055C0006501C601B5010E946C1369E276E081EEC7
:1055D0009AE00E94D212FFEFAF1ABF0ACF0ADF0A89
:1055E0000FE0A016B104C104D10459F70E94D312F0
:1055F0008DED97E00E941F13D1018D919D911D01AA
:105600000E941A1369E276E081EE9AE00E94D212BB
:10561000B4E72B16BEE03B0679F70E94D31283EE67
:1056200097E00E941F13F701819191917F010E94E1
:105630001A1369E276E081EE9AE00E94D21222E922
:10564000C22E2EE0D22ECE14DF0469F70E94D312B0
:105650008FEB97E00E941F136AEB77E0C401E2D55D
:10566000892B09F057C00E94D3128FEB97E00E945C
:105670001F138DED97E00E941F1304ED1FE07801CA
:10568000D7018D919D917D010E941A1369E276E008
:1056900081EE9AE00E94D212B4EFEB16BFE0FB0657
:1056A00079F70E94D31283EE97E00E941F1384E1E2
:1056B000E82E80E1F82E94EFC92E9FE0D92EF60156
:1056C000819191916F010E941A1369E276E081EE57
:1056D0009AE00E94D212EC14FD0489F70E94D312C2
:1056E00087ED98E00E941F13D8018D919D918D0147
:1056F0000E941A1369E276E081EE9AE00E94D212CB
:10570000BFE0043F1B0781F70E94D3128FEB97E0A5
:105710000E941F136BEE77E0C40184D5892BC1F57D
:10572000CE0145960E942C13AD88BE88CF88D88CB8
:10573000E98CFA8C0B8D1C8D82EC97E00E941F1374
:1057400062EF77E081EE9AE00E94D212C5010E94DA
:1057500096136EEF77E081EE9AE00E94D212C601B6
:105760000E94961367E078E081EE9AE00E94D212E0
:10577000C7010E9496136FE078E081EE9AE00E94E4
:10578000D212C8010E94961382EC97E00E941F1368
:1057900068E178E0C40146D5892B11F40E94DC1140
:1057A0006FE178E0C4013ED5892B49F563E278E0EA
:1057B00081EE9AE00E94D21288E00E94C306BC01EA
:1057C000990F880B990B0E946C136AE276E081EEC8
:1057D0009AE00E94D21289E00E94C306BC01990F90
:1057E000880B990B0E946C136AE276E081EE9AE0D6
:1057F0000E94D2128AE00E94C3060E94961367E3B9
:1058000078E0CE0101960ED5892B91F460E08CE210
:105810000E94EB0660E080E30E94EB0610929E0B74
:1058200060E08EE20E94EB0681E498E00E941F1384
:105830006BE478E0CE010196F5D4892B99F461E010
:105840008CE20E94EB0661E080E30E94EB0681E0BF
:1058500080939E0B61E08EE20E94EB0684E598E067
:105860000E941F1347E050E06DE578E0CE010196FD
:10587000E9D4892B91F40885002E000C110B0053FC
:105880001109C8010E94A41365E678E081EE9AE050
:105890000E94D212C8010E9496136AE778E0CE01F6
:1058A0000196C0D4892B61F46BE678E081EE9AE032
:1058B0000E94D2128091800B9091810B0E949613CE
:1058C00061E878E0CE010196ADD4892B51F481E8EE
:1058D00098E00E941F136CE47DE08EE19EE00E9440
:1058E000D0106CE878E0CE0101969CD4892B51F45D
:1058F00060E37DE086EE9DE00E94B0108CE898E0C9
:105900000E941F1369E374E0CE0101968BD4892BAA
:1059100099F48091F40F9091F50F809719F480E03D
:1059200090E002C080E290E09093F50F8093F40F36
:1059300089E394E00E941F1362E978E0CE010196AA
:1059400071D4892B99F481E090E02091FA0F309185
:10595000FB0F2130310511F480E090E09093FB0FB4
:105960008093FA0F82E998E00E941F1367E978E0BC
:10597000CE01019657D4892B59F4E091B60FF091DE
:10598000B70F0280F381E02D86E490E0918380835D
:105990000E9455049AC902E010E002C003E010E042
:1059A00060E04BCA413051056105710561F4149600
:1059B000ED91FC911597309709F460CA16968D9178
:1059C0009C91179710C0452B462B472B09F056CAC0
:1059D0001896ED91FC911997309709F44FCA1A96D1
:1059E0008D919C911B97199549CA822F90E0FC01DB
:1059F0003197E031F105A8F58827E458FF4F8F4F24
:105A000008C38091AA0B9091AB0B98278927982700
:105A100004E0969587950A95E1F74091AC0B50917B
:105A2000AD0B54274527542734E0569547953A95B2
:105A3000E1F714C08091AA0B9091AB0B98278927AE
:105A40009ACB8091AA0B9091AB0B582F492F809144
:105A5000AC0B9091AD0B982789279827840F951F41
:105A60008ACB0E94B2076093F80B7093F90B809376
:105A7000FA0B9093FB0B1092A70BE091A90B8E2FC2
:105A800090E0FC013197E031F10508F0BECB8827AA
:105A9000E457FF4F8F4FBDC2FC01A3E0F695E79599
:105AA000AA95E1F7EE7FF170EC52F04FA081B18141
:105AB000E82FEF7002C0B695A795EA95E2F7E62FBA
:105AC000F0E0E156F44FA0FF0DC0A1857301620123
:105AD000072E04C0CC0CDD1CEE1CFF1C0A94D2F770
